{
  "contractName": "NonGovernmentalOrganizations",
  "abi": [
    {
      "constant": true,
      "inputs": [
        {
          "name": "",
          "type": "address"
        }
      ],
      "name": "ownerToOrganizationId",
      "outputs": [
        {
          "name": "",
          "type": "uint256"
        }
      ],
      "payable": false,
      "stateMutability": "view",
      "type": "function"
    },
    {
      "constant": true,
      "inputs": [
        {
          "name": "",
          "type": "uint256"
        }
      ],
      "name": "organizations",
      "outputs": [
        {
          "name": "id",
          "type": "uint256"
        },
        {
          "name": "owner",
          "type": "address"
        },
        {
          "name": "name",
          "type": "string"
        }
      ],
      "payable": false,
      "stateMutability": "view",
      "type": "function"
    },
    {
      "inputs": [],
      "payable": false,
      "stateMutability": "nonpayable",
      "type": "constructor"
    },
    {
      "anonymous": false,
      "inputs": [
        {
          "indexed": true,
          "name": "id",
          "type": "uint256"
        },
        {
          "indexed": true,
          "name": "owner",
          "type": "address"
        },
        {
          "indexed": false,
          "name": "name",
          "type": "string"
        }
      ],
      "name": "OrganizationCreated",
      "type": "event"
    },
    {
      "anonymous": false,
      "inputs": [
        {
          "indexed": true,
          "name": "id",
          "type": "uint256"
        },
        {
          "indexed": true,
          "name": "owner",
          "type": "address"
        },
        {
          "indexed": true,
          "name": "sender",
          "type": "address"
        },
        {
          "indexed": false,
          "name": "value",
          "type": "uint256"
        }
      ],
      "name": "DonationSubmitted",
      "type": "event"
    },
    {
      "constant": false,
      "inputs": [
        {
          "name": "_name",
          "type": "string"
        }
      ],
      "name": "addOrganization",
      "outputs": [],
      "payable": false,
      "stateMutability": "nonpayable",
      "type": "function"
    },
    {
      "constant": false,
      "inputs": [
        {
          "name": "_organizationId",
          "type": "uint256"
        }
      ],
      "name": "donation",
      "outputs": [],
      "payable": true,
      "stateMutability": "payable",
      "type": "function"
    },
    {
      "constant": true,
      "inputs": [],
      "name": "getOrganizationsLength",
      "outputs": [
        {
          "name": "",
          "type": "uint256"
        }
      ],
      "payable": false,
      "stateMutability": "view",
      "type": "function"
    }
  ],
  "bytecode": "0x608060405234801561001057600080fd5b50600060606040519081016040528060008152602001600073ffffffffffffffffffffffffffffffffffffffff1681526020016040805190810160405280600181526020017f3000000000000000000000000000000000000000000000000000000000000000815250815250908060018154018082558091505090600182039060005260206000209060030201600090919290919091506000820151816000015560208201518160010160006101000a81548173ffffffffffffffffffffffffffffffffffffffff021916908373ffffffffffffffffffffffffffffffffffffffff160217905550604082015181600201908051906020019061011492919061011d565b505050506101c2565b828054600181600116156101000203166002900490600052602060002090601f016020900481019282601f1061015e57805160ff191683800117855561018c565b8280016001018555821561018c579182015b8281111561018b578251825591602001919060010190610170565b5b509050610199919061019d565b5090565b6101bf91905b808211156101bb5760008160009055506001016101a3565b5090565b90565b6108ed806101d16000396000f30060806040526004361061006d576000357c0100000000000000000000000000000000000000000000000000000000900463ffffffff1680635e62a6f514610072578063710de504146100c9578063b930668114610104578063e792dd8a1461012f578063fdac32541461020f575b600080fd5b34801561007e57600080fd5b506100b3600480360381019080803573ffffffffffffffffffffffffffffffffffffffff16906020019092919050505061022f565b6040518082815260200191505060405180910390f35b3480156100d557600080fd5b50610102600480360381019080803590602001908201803590602001919091929391929390505050610247565b005b34801561011057600080fd5b506101196104e2565b6040518082815260200191505060405180910390f35b34801561013b57600080fd5b5061015a600480360381019080803590602001909291905050506104ee565b604051808481526020018373ffffffffffffffffffffffffffffffffffffffff1673ffffffffffffffffffffffffffffffffffffffff16815260200180602001828103825283818151815260200191508051906020019080838360005b838110156101d25780820151818401526020810190506101b7565b50505050905090810190601f1680156101ff5780820380516001836020036101000a031916815260200191505b5094505050505060405180910390f35b61022d600480360381019080803590602001909291905050506105df565b005b60016020528060005260406000206000915090505481565b600080600160003373ffffffffffffffffffffffffffffffffffffffff1673ffffffffffffffffffffffffffffffffffffffff16815260200190815260200160002054141515610325576040517f08c379a000000000000000000000000000000000000000000000000000000000815260040180806020018281038252602a8152602001807f7375706c696564206f776e657220616c7265616479206861766520616e206f7281526020017f67616e697a6174696f6e0000000000000000000000000000000000000000000081525060400191505060405180910390fd5b6001600060606040519081016040528060008054905081526020013373ffffffffffffffffffffffffffffffffffffffff16815260200186868080601f016020809104026020016040519081016040528093929190818152602001838380828437820191505050505050815250908060018154018082558091505090600182039060005260206000209060030201600090919290919091506000820151816000015560208201518160010160006101000a81548173ffffffffffffffffffffffffffffffffffffffff021916908373ffffffffffffffffffffffffffffffffffffffff160217905550604082015181600201908051906020019061042a92919061081c565b50505003905080600160003373ffffffffffffffffffffffffffffffffffffffff1673ffffffffffffffffffffffffffffffffffffffff168152602001908152602001600020819055503373ffffffffffffffffffffffffffffffffffffffff16817f738a6c19c1f9d0875478754c8c4811baa12949f287f2385e1092efef86be9f798585604051808060200182810382528484828181526020019250808284378201915050935050505060405180910390a3505050565b60008080549050905090565b6000818154811015156104fd57fe5b90600052602060002090600302016000915090508060000154908060010160009054906101000a900473ffffffffffffffffffffffffffffffffffffffff1690806002018054600181600116156101000203166002900480601f0160208091040260200160405190810160405280929190818152602001828054600181600116156101000203166002900480156105d55780601f106105aa576101008083540402835291602001916105d5565b820191906000526020600020905b8154815290600101906020018083116105b857829003601f168201915b5050505050905083565b80600073ffffffffffffffffffffffffffffffffffffffff1660008281548110151561060757fe5b906000526020600020906003020160010160009054906101000a900473ffffffffffffffffffffffffffffffffffffffff1673ffffffffffffffffffffffffffffffffffffffff16141515156106eb576040517f08c379a000000000000000000000000000000000000000000000000000000000815260040180806020018281038252603c8152602001807f7375706c696564206f7267616e697a6174696f6e20494420646f65736e27742081526020017f68617665206120636f7272656374206f776e657220616464726573730000000081525060400191505060405180910390fd5b6000828154811015156106fa57fe5b906000526020600020906003020160010160009054906101000a900473ffffffffffffffffffffffffffffffffffffffff1673ffffffffffffffffffffffffffffffffffffffff166108fc349081150290604051600060405180830381858888f19350505050158015610771573d6000803e3d6000fd5b503373ffffffffffffffffffffffffffffffffffffffff1660008381548110151561079857fe5b906000526020600020906003020160010160009054906101000a900473ffffffffffffffffffffffffffffffffffffffff1673ffffffffffffffffffffffffffffffffffffffff16837f342c52080d2486c4965c8069403df2a50b8dfe06df37c56667ca67ad43b690d2346040518082815260200191505060405180910390a45050565b828054600181600116156101000203166002900490600052602060002090601f016020900481019282601f1061085d57805160ff191683800117855561088b565b8280016001018555821561088b579182015b8281111561088a57825182559160200191906001019061086f565b5b509050610898919061089c565b5090565b6108be91905b808211156108ba5760008160009055506001016108a2565b5090565b905600a165627a7a72305820908fcf15076205e2e90da20bd929bb191c0805865bfe98aace9fef0f7ff468ed0029",
  "source": "pragma solidity ^0.4.21;\ncontract NonGovernmentalOrganizations {\n\n    struct Organization {\n        uint id;\n        address owner;\n        string name;\n    }\n\n    Organization[] public organizations;\n\n    mapping(address => uint) public ownerToOrganizationId;\n\n    constructor() public {\n\n        organizations.push(Organization(0, 0, \"0\")); // to fix problem with nulls\n    }\n\n    event OrganizationCreated(uint indexed id, address indexed owner, string name);\n    event DonationSubmitted(uint indexed id, address indexed owner, address indexed sender, uint value);\n\n    modifier ownerNotExists() {\n\n        require(ownerToOrganizationId[msg.sender] == 0, \"suplied owner already have an organization\");\n        _;\n    }\n\n    modifier ownerExists(uint _organizationId) {\n\n        require(organizations[_organizationId].owner != address(0), \"suplied organization ID doesn't have a correct owner address\");\n        _;\n    }\n\n    function addOrganization(string _name) external \n        ownerNotExists() {\n\n        uint organizationId = organizations.push(Organization(organizations.length, msg.sender, _name)) - 1;\n        ownerToOrganizationId[msg.sender] = organizationId;\n        emit OrganizationCreated(organizationId, msg.sender, _name);\n    }\n\n    function donation(uint _organizationId) external payable\n        ownerExists(_organizationId) {\n\n        organizations[_organizationId].owner.transfer(msg.value);\n        emit DonationSubmitted(_organizationId, organizations[_organizationId].owner, msg.sender, msg.value);\n    }\n\n\n    function getOrganizationsLength() external view returns(uint) {\n\n        return organizations.length;\n    }\n\n}",
  "sourcePath": "/home/adolfo/Cursos/commit-conf-taller-blockchain/contracts/NonGovernmentalOrganizations.sol",
  "compiler": {
    "name": "solc",
    "version": "0.4.24+commit.e67f0147.Emscripten.clang"
  },
  "schemaVersion": "2.0.1",
  "updatedAt": "2018-11-21T22:21:33.979Z"
}